:020000000E28C8
:10000800FE00030EC1000408C2000A08C3007F08EE
:10001800C40014280F28C601C701C80183013F285E
:100028008C1C34288C101E08C0004008C600A8305C
:1000380046020318282840304702031828280130B0
:10004800C0004008C7072D28470803192D2801308C
:10005800C702470895000130C0004008C8079F1430
:100068004408FF0043088A0042088400410E8300C8
:10007800FE0E7E0E09000615A9309F008D140B1781
:100088008B17703090040614960140309200950149
:1000980094018C1004309300F03096008C1C522888
:1000A80006108610851064305F20851464305F2048
:1000B800C8305F205628C500C80145084802031803
:0400C80008006128A3
:02400E00E63F8B
:00000001FF
