:020000000E28C8
:10000800FE00030EC1000408C2000A08C3007F08EE
:10001800C40014280F28C701C801C901830140285A
:100028008C1C35288C109F141E08C0004008C7007F
:10003800A830470203182928403048020318292805
:100048000130C0004008C8072E28480803192E2888
:100058000130C802480895000130C0004008C907AF
:100068009F144408FF0043088A0042088400410E98
:100078008300FE0E7E0E0900C6010615A9309F00FA
:100088008D140B178B1770309004061496014030AE
:100098009200950194018C1004309300F030960082
:1000A8008C1C542806100A30950086108510643080
:1000B8006320851464306320C83063205A28C50043
:0C00C800C901450849020318080065281A
:02400E00E63F8B
:00000001FF
